:020000040000FA
:1000000000040020890A00008D0A0000930C000003
:1000100000000000000000000000000000000000E0
:10002000000000000000000000000000910A000035
:100030000000000000000000930A0000950A000084
:10004000970A0000970A0000970A0000970A00002C
:10005000970A0000970A0000970A0000970A00001C
:100060006B010000970A0000970A0000970A000041
:10007000970A0000970A0000970A000000F002F8B3
:1000800000F046F80CA030C8083824182D18A246F5
:10009000671EAB4654465D46AC4201D100F038F8CD
:1000A0007E460F3E0FCCB6460126334200D0FB1AE7
:1000B000A246AB4633431847740D0000940D000070
:1000C000103A02D378C878C1FAD8520701D330C8A1
:1000D00030C101D504680C60704700000023002483
:1000E00000250026103A01D378C1FBD8520700D36F
:1000F00030C100D50B60704710B5782902D100F0EF
:100100001DFD10BD002010BD1FB51FBD10B510BDD9
:1001100000F0EAFD1146FFF7F7FF00F099F800F054
:1001200002FE03B4FFF7F2FF03BC00F009FE00007B
:1001300010B583698B438361002A04D0C3690C0422
:100140002343C36103E0C3690C04A343C36110BD2F
:1001500083698B438361002A03D0C3690B43C36166
:1001600002E0C3698B43C361704710B57448754999
:10017000096A01400C460120C0032040002810D02D
:100180000121C9036F4800F09EF86F4800F00BFE94
:10019000002803D06DA000F08DFC02E073A000F0F9
:1001A00089FC012080032040002810D00121890310
:1001B000644800F088F8644800F014FE002803D07A
:1001C00072A000F077FC02E077A000F073FC2146FB
:1001D0007CA000F06FFC10BD10B500F0B9FD00F080
:1001E00074F800BF00207C49C86100BF00BF002137
:1001F0007A48016000BF10BD10B50F2000035149BF
:100200004968020491434F4A516000BF7448114647
:10021000086000BF012291034A48FFF799FF0122BD
:1002200091034848FFF784FF0122D1034548FFF7B7
:100230008FFF0122D1034348FFF77AFF08200121F5
:10024000814042099200674BD218116000BF10BD77
:1002500086B065A000F02EFCFFF7BEFFFFF7CCFFD5
:100260000120C003374B42101946009002A800F04D
:100270007FFA354802A92EC92EC000BF402131485F
:1002800000F019F880212F4800F019F8002400E050
:10029000641C59488442FBDB40212A4800F00FF8D7
:1002A0008021284800F007F8002400E0641C524830
:1002B0008442E3DAFAE782680A4382607047826820
:1002C0008A43826070470162704700BF0120424943
:1002D000896808229143C20008231A4011433E4A0C
:1002E000916000BF0020114689680422914382007A
:1002F00004231A401143384A916000BF00BF00BF79
:100300003E4989690909090101433C4A916100BFDD
:1003100007201146096981430143116100BF032091
:100320001146096A0143116200BF022011460968A3
:10033000402291438143314A116000BF7047000061
:10034000FFFF00004040005008040020636C6F6312
:100350006B20726F73652066726F6D206C6F7720F3
:10036000746F20686967680A00000000636C6F633F
:100370006B2066656C6C2066726F6D2068696768BB
:1003800020746F206C6F770A000000006461746154
:1003900020726F73652066726F6D206C6F772074AA
:1003A0006F20686967680A00646174612066656C23
:1003B0006C2066726F6D206869676820746F206CAE
:1003C0006F770A00696E7420666C6167733A20303B
:1003D0007825780A0000000000000050000100505D
:1003E00000A000FF00E100E0656173792070726990
:1003F0006E74660A0000000040420F0000020050C8
:1004000070B50546FF24F53400BF2046641E002861
:1004100004D0284600F0C7FC0028F6D0002C01D1FB
:10042000002070BD0120FCE770B50546FF24F534BF
:1004300000BF2046641E002804D0284600F0B3FC0C
:100440000028F6D1002C01D1002070BD0120FCE76E
:1004500070B50546FF24F53400BF2046641E002811
:1004600004D0284600F0BEFC0028F6D0002C01D1B4
:10047000002070BD0120FCE770B50546FF24F5346F
:1004800000BF2046641E002804D0284600F0AAFCC5
:100490000028F6D1002C01D1002070BD0120FCE71E
:1004A00070B50446FF25F53500BF28466D1E0028AF
:1004B00004D0204600F077FC0028F6D070BD10B5BF
:1004C0000446012000F0C2FA204600F0C5FA20469A
:1004D000FFF7E6FF182000F0B9FA204600F0C4FA52
:1004E000182000F0B3FA10BD10B50446012000F04A
:1004F000ADFA2046FFF784FF182000F0A7FA204647
:10050000FFF792FF182000F0A1FA10BD10B50446C5
:10051000204600F0A1FA204600F054FC0C2000F028
:1005200095FA204600F056FC0C2000F08FFA204689
:1005300000F09AFA182000F089FA10BD10B50446B0
:10054000204600F089FA204600F044FC2046FFF7E0
:10055000A7FF0C2000F07AFA204600F033FC10BD13
:1005600070B50446204600F02DFC012000F06EFA24
:10057000204600F071FA2046FFF792FF0C2000F0B1
:1005800065FA204600F02EFC05460C2000F05EFACD
:10059000204600F069FA182000F058FA284670BD8D
:1005A00070B50446204600F00DFC012000F04EFA24
:1005B0002046FFF725FF0C2000F048FA204600F007
:1005C00011FC05462046FFF72FFF182000F03EFAE9
:1005D000284670BD70B50446204600F045FA204616
:1005E00000F0F0FB204600F037FA2046FFF758FFF6
:1005F0000C2000F02BFA204600F0F4FB01214840CB
:1006000005460C2000F022FA204600F02DFA1820B2
:1006100000F01CFA284670BD10B50446204600F0D4
:10062000D9FB012000F012FA2046FFF748FF2046D0
:1006300000F0D0FB012000F009FA10BD10B504460F
:10064000204600F0C7FB012000F000FA2046FFF72B
:100650004BFF204600F0B6FB012000F0F7F910BD7B
:1006600010B50446204600F0ADFB012000F0EEF985
:100670002046FFF724FF204600F0ACFB012000F0ED
:10068000E5F910BD10B50446204600F09BFB0120A3
:1006900000F0DCF92046FFF727FF204600F092FB30
:1006A000012000F0D3F910BD70B506460C46304667
:1006B00000F090FB304600F0D7F9182000F0C6F9A2
:1006C000002511E080202040002803D0304600F0B3
:1006D00079FB02E0304600F07DFB6006040E3046F8
:1006E000FFF7EDFE681CC5B2082DEBDB304600F0CD
:1006F00071FB012070BD70B504460D4629462046A9
:10070000FFF7D2FF012070BD70B5064600243046C9
:1007100000F060FB304600F0A7F9182000F096F9D1
:10072000002507E06006040E3046FFF719FF04437A
:10073000681CC5B2082DF5DB204670BD70B50646B5
:100740000024304600F03EFB304600F085F91820CA
:1007500000F07CF9002507E06006040E3046FFF744
:100760001FFF0443681CC5B2082DF5DB204670BD91
:10077000F0B585B004460D4616461F460095029713
:1007800001960A980390684600F066F9684600F002
:1007900019FB68460FC80FC4103C05B0F0BD10B57A
:1007A0000446A28991B2A06800F04CF9002801D05B
:1007B000012010BD0020FCE7F8B507460D461446A1
:1007C0001E4672B63846FFF7A1FE6800FE221040B2
:1007D00001463846FFF768FF3846FFF7FBFE07E0A3
:1007E0002178641C3846FFF75FFF3846FFF7F2FEBA
:1007F0003046711ECEB20028F2D13846FFF79EFE79
:1008000062B60120F8BDF8B506460C462078801C7B
:10081000C7B2254672B63046FFF778FE07E0297862
:100820006D1C3046FFF740FF3046FFF7D3FE3846D9
:10083000791ECFB20028F2D13046FFF77FFE62B6B4
:100840000120F8BDF8B507460E4614461D4672B69F
:100850003846FFF75BFE7000401CC1B23846FFF718
:1008600023FF3846FFF7B6FE002805D13846FFF7CC
:1008700065FE62B60020F8BD0DE03846FFF744FF84
:100880002070641C002D03DD3846FFF7C5FE02E032
:100890003846FFF7E5FE2846691ECDB20028ECD1A8
:1008A0003846FFF74BFE62B60120E4E770B5064616
:1008B0000D46144672B6304600F084FA304600F019
:1008C000CBF83046FFF7D8FD002800D170BD304688
:1008D000FFF7AAFD002800D1F8E7601CC4B20DE0C4
:1008E0003046FFF72BFF28706D1C002C03DD3046CF
:1008F000FFF7A4FE02E03046FFF7C4FE2046611E6B
:10090000CCB20028ECD13046FFF718FE62B60120C9
:10091000DCE7F8B507460C460025264672B6384691
:1009200000F050FA384600F097F83846FFF7A4FD7B
:10093000002800D1F8BD3846FFF776FD002800D129
:10094000F8E714E03846FFF7F9FE3070761C002D0A
:1009500003DD3846FFF772FE02E03846FFF792FEED
:10096000681CC5B22078801CA84200DC00E0E9E7E2
:1009700000BF3846FFF7E2FD62B60120DAE7FFB5B7
:1009800081B00C4615461E460A9F72B60198FFF7C5
:10099000BDFD6000FE22104001460198FFF784FE75
:1009A0000198FFF717FE002806D10198FFF7C6FD52
:1009B00062B6002005B0F0BD0FE029786D1C0198EB
:1009C000FFF772FE0198FFF705FE002805D1019898
:1009D000FFF7B4FD62B60020ECE73046711ECEB2E0
:1009E0000028EAD10198FFF791FD6000401CC1B2D8
:1009F0000198FFF759FE0198FFF7ECFD002805D19B
:100A00000198FFF79BFD62B60020D3E70EE0019846
:100A1000FFF77AFE38707F1C0B98002803DD0198E1
:100A2000FFF7FAFD02E00198FFF71AFE0B98411E4E
:100A3000C9B20B910028EAD10198FFF77FFD62B699
:100A40000120B7E7024610690840704700BF014621
:100A5000401E0029FBD1704710B50446A28991B20F
:100A6000A06800F009F810BD10B50446A28991B243
:100A7000A06800F005F810BD82680A4382607047E4
:100A800082688A438260704706480047FEE7FEE7B7
:100A9000FEE7FEE7FEE7FEE703480449024A044B8F
:100AA000704700007D000000880400200004002042
:100AB000000000200FB4054910B503AA029800F009
:100AC000C5F810BC08BC04B018470000040400209E
:100AD000F8B50E460446002020622046E1688847AB
:100AE000002829D0252802D06268A16820E0E168AA
:100AF00020460027884705001ED02846413819287F
:100B000002D80127FF0220353246204627602946B9
:100B1000FFF7F2FA002808D0012804D0F61DF608E5
:100B2000F6000836D9E7361DD7E762682846A1687F
:100B30009047206A401CCFE7206AF8BD70B5044694
:100B40000D4621461068C046C0462188090502D5D9
:100B50000F4A7A4402E00E4A7A440E3223460021BC
:100B6000243305E006070009360F965D5E54491CE4
:100B70000028F7D120780023000705D5702D03D079
:100B8000002901D002231132204600F006F870BD82
:100B9000AC020000704770477047FFB504460D4631
:100BA00081B0243000902168880604D51022E069C5
:100BB0009143216000E00120A84201DD471B00E0D5
:100BC00000270498A1697A191018081AA0612078E2
:100BD000C00602D42046C046C046002608E003985E
:100BE0006268A168805D9047206A401C761C206284
:100BF00004988642F3DB2078C0060AD52046C0461A
:100C0000C04606E06268A16830209047206A401C18
:100C1000206238467F1E0028F4DC07E000986268F6
:100C2000A168405D9047206A401C206228466D1EE6
:100C30000028F3DC2046C046C0462078000602D5D6
:100C4000022005B0F0BD0120FBE70000084B70B5A5
:100C50000D467B4400F035F8044628460020C0438A
:100C6000002802D00020C04370BD204670BD0000A7
:100C70004701000005B50E48002200F001F805BD4F
:100C8000ABBE01E000207047002A00D010600120B8
:100C9000704706980188074A914207D102300690B2
:100CA000079801218907884307907047FEE70000F5
:100CB00000010000ABBE000001694A1C0261087817
:100CC000704700B58FB0029100210591054901934D
:100CD00079440391114604906846FFF7F9FE0FB07E
:100CE00000BD0000E5FFFFFF754600F025F8AE46A9
:100CF000050069465346C008C000854618B020B5B7
:100D0000FFF7CAFE60BC00274908B6460026C0C5EA
:100D1000C0C5C0C5C0C5C0C5C0C5C0C5C0C5403DB3
:100D200049008D46704710B50446C046C04620466F
:100D3000FFF7F7F910BD00000048704728040020B5
:100D400001491820ABBEFEE72600020070470000F4
:100D50000348592101601621016088210160704714
:100D60000001005010B50C490A4B0A780024985431
:100D7000521CD2B20A709C54521C102A03D20A2868
:100D800001D0002805D10C70002202490420FFF791
:100D900077FF10BD180400200004002010B5FFF7F5
:100DA000E1FF002010BD10B50446A28991B2A068F1
:100DB000FFF748FEE1680840002801D0012010BD7F
:100DC0000020FCE710B50446A28891B22068FFF726
:100DD00053FE10BD10B50446A28891B22068FFF7FB
:100DE0004FFE10BD10B50446A28891B22068FFF7EF
:100DF00029FE61680840002801D0012010BD0020B4
:100E0000FCE73031323334353637383941424344E8
:100E10004546403058003031323334353637383972
:100E20006162636465664030780000004C0E00002B
:100E30000004002008000000C0000000540E000064
:100E40000804002080000000DC000000000000001A
:040E5000000000009E
:0400000500000A8964
:00000001FF
