:020000040000FA
:100000000004002025030000290300006B05000008
:1000100000000000000000000000000000000000E0
:100020000000000000000000000000002D030000A0
:1000300000000000000000002F030000310300005A
:1000400033030000330300003303000033030000D8
:1000500033030000330300003303000033030000C8
:1000600031010000330300003303000033030000BC
:1000700033030000330300003303000000F002F8F4
:1000800000F046F80CA030C8083824182D18A246F5
:10009000671EAB4654465D46AC4201D100F038F8CD
:1000A0007E460F3E0FCCB6460126334200D0FB1AE7
:1000B000A246AB4633431847C8050000F8050000C8
:1000C000103A02D378C878C1FAD8520701D330C8A1
:1000D00030C101D504680C60704700000023002483
:1000E00000250026103A01D378C1FBD8520700D36F
:1000F00030C100D50B60704710B5642902D100F003
:100100006BF910BD002010BD1FB51FBD10B510BD8F
:1001100000F056FA1146FFF7F7FF00F06DF800F017
:100120006EFA03B4FFF7F2FF03BC00F075FA0000AB
:1001300010B566A000F00CF90120C00365490969FB
:100140000140002908D0644801680068401C624BE7
:10015000186062A000F0FCF8012109035D4800F07E
:1001600078F8012149035B4800F073F80121890305
:10017000584800F06EF80121C903564800F069F8AC
:1001800010BD10B500F050FA00F065F800BF002077
:100190005A49C86100BF00BF00215948016000BF33
:1001A00010BD0F2000034B49496802049143494A9E
:1001B000516000BF53481146086000BF0120800312
:1001C000012192698243434B9A61002904D01A4667
:1001D000D2690243DA6104E03E4AD26982433D4B70
:1001E000DA6100BF08200121814042099200464B9C
:1001F000D218116000BF704744A000F0A9F8FFF7C3
:10020000C0FFFFF7CEFF00BF4021324800F019F8D1
:100210008021304800F019F8002400E0641C3F48B9
:100220008442FBDB40212B4800F00FF88021294855
:1002300000F007F8002400E0641C38488442E3DA48
:10024000FAE782680A438260704782688A43826064
:1002500070470162704700BF012028498968082261
:100260009143C20008231A401143244A916000BF01
:1002700000201146896804229143820004231A4019
:1002800011431E4A916000BF00BF00BF2449896925
:10029000090909010143224A916100BF0720114663
:1002A000096981430143116100BF03201146096AB6
:1002B0000143116200BF02201146096840229143A8
:1002C0008143174A116000BF70470000696E2069C2
:1002D00072710A004040005010040020676F7420C3
:1002E00073746F7020636F6E646974696F6E206ED3
:1002F000756D6265722025642E0A000000000050B2
:100300000001005000A000FF00E100E0656173798A
:10031000207072696E74660A0000000040420F008F
:100320000002005006480047FEE7FEE7FEE7FEE752
:10033000FEE7FEE703480449024A044B7047000009
:100340007D00000090040020000400200000002038
:100350000FB4054910B503AA029800F0CFF810BCFD
:1003600008BC04B01847000018040020F8B50E4679
:100370000446002020622046E1688847002829D0F2
:10038000252802D06268A16820E0E16820460027A5
:10039000884705001ED028464138192802D8012771
:1003A000FF0220353246204627602946FFF7A4FE8B
:1003B000002808D0012804D0F61DF608F6000836FB
:1003C000D9E7361DD7E762682846A1689047206ABA
:1003D000401CCFE7206AF8BDF7B5002575291068E5
:1003E000009914A611D0C046C046002802DA404247
:1003F00011A608E0009909688A0701D50FA602E056
:10040000490704D50EA6012501E0C046C046009F5D
:100410000024243704E000F085F830313955641C9D
:100420000028F8D12B4632462146009800F00DF8FE
:10043000FEBD0000000000002D0000002B000000A9
:1004400020000000704770477047FFB504460D4616
:1004500081B0243000902168880604D51022E0691C
:100460009143216000E00120A84201DD471B00E02C
:1004700000270498A1697A191018081AA061207839
:10048000C00602D42046C046C046002608E00398B5
:100490006268A168805D9047206A401C761C2062DB
:1004A00004988642F3DB2078C0060AD52046C04671
:1004B000C04606E06268A16830209047206A401C70
:1004C000206238467F1E0028F4DC07E0009862684E
:1004D000A168405D9047206A401C206228466D1E3E
:1004E0000028F3DC2046C046C0462078000602D52E
:1004F000022005B0F0BD0120FBE70000084B70B5FD
:100500000D467B4400F049F8044628460020C043CD
:10051000002802D00020C04370BD204670BD0000FE
:100520006F01000001468008081A02091018020A2B
:100530001018020C1018C008820012185200891AF4
:1005400001E0401C0A390A29FBD2704705B50E4864
:10055000002200F001F805BDABBE01E000207047AD
:10056000002A00D010600120704706980188074AD1
:10057000914207D1023006900798012189078843EC
:1005800007907047FEE7000000010000ABBE0000CE
:1005900001694A1C02610878704700B58FB002916A
:1005A0000021059105490193794403911146049076
:1005B0006846FFF7DBFE0FB000BD0000E5FFFFFF60
:1005C000754600F025F8AE46050069465346C0085A
:1005D000C000854618B020B5FFF7ACFE60BC002710
:1005E0004908B6460026C0C5C0C5C0C5C0C5C0C5FF
:1005F000C0C5C0C5C0C5403D49008D46704710B557
:100600000446C046C0462046FFF78BFD10BD0000E3
:10061000004870472C04002001491820ABBEFEE7BB
:10062000260002007047000003485921016016218E
:1006300001608821016070470001005010B50C492D
:100640000A4B0A7800249854521CD2B20A709C5467
:10065000521C102A03D20A2801D0002805D10C70A0
:10066000002202490420FFF777FF10BD1C04002080
:100670001404002010B5FFF7E1FF002010BD0000BA
:10068000B0060000000400201C000000C0000000B4
:10069000CC0600001C04002070000000DC000000FC
:1006A000CC0600008C04002004000000DC000000E8
:1006B000000000000000000000000000000000003A
:0C06C0000000000000000000000000002E
:0400000500000325CF
:00000001FF
