:020000040000FA
:1000000000040020ED020000F10200008303000064
:1000100000000000000000000000000000000000E0
:10002000000000000000000000000000F5020000D9
:100030000000000000000000F7020000F9020000CC
:10004000FB020000FB020000FB020000FB020000BC
:10005000FB020000FB020000FB020000FB020000AC
:100060003B010000FB020000FB020000FB0200005D
:10007000FB020000FB020000FB02000000F002F89F
:1000800000F03EF80CA030C8083824182D18A246FD
:10009000671EAB4654465D46AC4201D100F030F8D5
:1000A0007E460F3E0FCCB6460126334200D0FB1AE7
:1000B000A246AB4633431847040400002404000062
:1000C000103A02D378C878C1FAD8520701D330C8A1
:1000D00030C101D504680C60704700000023002483
:1000E00000250026103A01D378C1FBD8520700D36F
:1000F00030C100D50B6070471FB51FBD10B510BDD6
:1001000000F06AF91146FFF7F7FF00F06CF800F015
:1001100094F903B4FFF7F2FF03BC00F09BF9000071
:1001200083698B438361002A03D0C3690B43C36196
:1001300002E0C3698B43C361704710B55CA000F057
:10014000EBF8012109035C4800F076F8012149032E
:10015000594800F071F801218903574800F06CF804
:100160000121C903544800F067F810BD10B500F034
:1001700079F900F063F800BF00205049C86100BF62
:1001800000BF00214E48016000BF10BD10B50F2018
:1001900000034949496802049143474A516000BF3E
:1001A000FF2000061146086000BF012211034248EB
:1001B000FFF7B6FF012251033F48FFF7B1FF0122CD
:1001C00091033D48FFF7ACFF0122D1033A48FFF706
:1001D000A7FF08200121814042099200394BD21823
:1001E000116000BF10BD38A000F096F8FFF7BEFF09
:1001F000FFF7CCFF00BF012109032F4800F018F8DA
:1002000035490860012149032B4800F011F83349B2
:10021000086001218903284800F00AF83049086085
:100220000121C903244800F003F82E490860E2E7E1
:1002300002461069084070470162704700BF012004
:100240001E49896808229143C20008231A401143BD
:100250001A4A916000BF0020114689680422914328
:10026000820004231A401143144A916000BF00BF6A
:1002700000BF1D4989690909090101431A4A9161B1
:1002800000BF07201146096981430143116100BF86
:1002900003201146096A0143116200BF0220114682
:1002A00009684022914381430F4A116000BF7047A3
:1002B000696E206972710A004040005000000050D1
:1002C0000001005000E100E06561737920707269FF
:1002D0006E74660A00000000000400200404002080
:1002E000080400200C0400200002005006480047CB
:1002F000FEE7FEE7FEE7FEE7FEE7FEE70348044908
:10030000024A044B704700007D0000008804002072
:1003100000040020000000200FB4054910B503AA16
:10032000029800F00BF810BC08BC04B0184700009D
:10033000140400207047704770470000084B70B5E8
:100340000D467B4400F035F8044628460020C043A3
:10035000002802D00020C04370BD204670BD0000C0
:100360006B01000005B50E48002200F001F805BD44
:10037000ABBE01E000207047002A00D010600120D1
:10038000704706980188074A914207D102300690CB
:10039000079801218907884307907047FEE700000E
:1003A00000010000ABBE000001694A1C0261087830
:1003B000704700B58FB00291002105910549019366
:1003C0007944039111460490684600F024F80FB078
:1003D00000BD0000E5FFFFFF754600F037F8AE46B0
:1003E000050069465346C008C000854618B020B5D0
:1003F000FFF784FF60BC00274908B6460026C0C549
:10040000C0C5C0C5C0C5C0C5C0C5C0C5C0C5403DCC
:1004100049008D467047F8B5064600244768806855
:1004200000903046F56803E00099B847641C3046F8
:10043000A8470028F8D12046F8BD10B50446C046AC
:10044000C0462046FFF765FE10BD0000004870471B
:100450002804002001491820ABBEFEE72600020058
:10046000704700000348592101601621016088216E
:10047000016070470001005010B50C490A4B0A7822
:1004800000249854521CD2B20A709C54521C102A58
:1004900003D20A2801D0002805D10C70002202499D
:1004A0000420FFF765FF10BD180400201004002091
:1004B00010B5FFF7E1FF002010BD0000DC040000D4
:1004C0000004002018000000C0000000F404000038
:1004D0001804002070000000DC0000000000000094
:1004E000000000000000000000000000000000000C
:0404F0000000000008
:04000005000002ED08
:00000001FF
