:020000040000FA
:1000000000040020E9020000ED0200007F03000070
:1000100000000000000000000000000000000000E0
:10002000000000000000000000000000F1020000DD
:100030000000000000000000F3020000F5020000D4
:10004000F7020000F7020000F7020000F7020000CC
:10005000F7020000F7020000F7020000F7020000BC
:100060003B010000F7020000F7020000F702000069
:10007000F7020000F7020000F702000000F002F8AB
:1000800000F03EF80CA030C8083824182D18A246FD
:10009000671EAB4654465D46AC4201D100F030F8D5
:1000A0007E460F3E0FCCB6460126334200D0FB1AE7
:1000B000A246AB463343184700040000200400006A
:1000C000103A02D378C878C1FAD8520701D330C8A1
:1000D00030C101D504680C60704700000023002483
:1000E00000250026103A01D378C1FBD8520700D36F
:1000F00030C100D50B6070471FB51FBD10B510BDD6
:1001000000F068F91146FFF7F7FF00F087F800F0FC
:1001100092F903B4FFF7F2FF03BC00F099F9000075
:1001200083698B438361002A03D0C3690B43C36196
:1001300002E0C3698B43C361704710B55DA000F056
:10014000E9F8012109035D4800F077F8012149032E
:100150005A4800F072F801218903584800F06DF800
:100160000121C903554800F068F810BD10B500F032
:1001700077F900F064F800BF00205149C86100BF62
:1001800000BF00214F48016000BF10BD0F200003D9
:100190004A49496802049143484A516000BF4A48AD
:1001A0001146086000BF012211034448FFF7B8FF61
:1001B000012251034148FFF7B3FF012291033F4859
:1001C000FFF7AEFF0122D1033C48FFF7A9FF08204B
:1001D00001218140420992003C4BD218116000BFBE
:1001E00000BF8021354800F020F84021334800F05E
:1001F00020F8002400E0641C35488442FBDB8021A9
:100200002E4800F016F840212C4800F00EF800248B
:1002100000E0641C2E488442E3DAFAE72DA000F0E7
:1002200079F8FFF7A3FFFFF7B1FF82680A43826006
:10023000704782688A43826070470162704700BFDE
:1002400001201F49896808229143C20008231A40EF
:1002500011431B4A916000BF0020114689680422A7
:100260009143820004231A401143154A916000BF54
:1002700000BF00BF1B498969090909010143194AE7
:10028000916100BF07201146096981430143116153
:1002900000BF03201146096A0143116200BF02201A
:1002A000114609684022914381430E4A116000BF04
:1002B00070470000696E206972710A00404000506A
:1002C0000000005000010050005000FF00E100E07D
:1002D00040420F0065617379207072696E74660A1E
:1002E000000000000002005006480047FEE7FEE75D
:1002F000FEE7FEE7FEE7FEE703480449024A044B37
:10030000704700007D0000007804002000040020F9
:10031000000000200FB4054910B503AA029800F0B0
:100320000BF810BC08BC04B01847000004040020FF
:100330007047704770470000084B70B50D467B440E
:1003400000F035F8044628460020C043002802D0BB
:100350000020C04370BD204670BD00006B0100004E
:1003600005B50E48002200F001F805BDABBE01E066
:1003700000207047002A00D01060012070470698C6
:100380000188074A914207D102300690079801215F
:100390008907884307907047FEE7000000010000CE
:1003A000ABBE000001694A1C02610878704700B5C5
:1003B0008FB0029100210591054901937944039181
:1003C00011460490684600F024F80FB000BD00000C
:1003D000E5FFFFFF754600F037F8AE4605006946B9
:1003E0005346C008C000854618B020B5FFF784FF0B
:1003F00060BC00274908B6460026C0C5C0C5C0C5B8
:10040000C0C5C0C5C0C5C0C5C0C5403D49008D46BA
:100410007047F8B50646002447688068009030466B
:10042000F56803E00099B847641C3046A8470028E7
:10043000F8D12046F8BD10B50446C046C046204657
:10044000FFF767FE10BD0000004870471804002049
:1004500001491820ABBEFEE72600020070470000ED
:10046000034859210160162101608821016070470D
:100470000001005010B50C490A4B0A78002498542A
:10048000521CD2B20A709C54521C102A03D20A2861
:1004900001D0002805D10C70002202490420FFF78A
:1004A00065FF10BD080400200004002010B5FFF710
:1004B000E1FF002010BD0000D8040000000400206F
:1004C00008000000C0000000E00400000804002054
:1004D00070000000DC0000000000000000000000D0
:04000005000002E90C
:00000001FF
